03300000        2010754298000189390710130030031     004866010           AREINHA PARTICIPACOES LTDA    BANCO SANTANDER (BRASIL) S/A            231072025      001566040                                                                          
03300981T01  040 2010754298000189004866010           390710130030031     AREINHA PARTICIPACOES LTDA                                                                                    0000156631072025                                         
0330098300001T 09390710130030031        000006946245336946245        30072019000000000071710033202736946245                  001000000896847373LUIS GUSTAVO MORAIS COSTA               02900006860000000000000000000000000                      
0330098300002U 090000000000000000000000000000000000000000000000000000000000000000000000000000000000000000000000000000000000000000000000003107202531072025000000000000000000000000000                              000                           
0330098300003T 09390710130030031        000006946246136946246        30072019000000000180040033202736946246                  001000000896847373LUIS GUSTAVO MORAIS COSTA               02900006860000000000000000000000000                      
0330098300004U 090000000000000000000000000000000000000000000000000000000000000000000000000000000000000000000000000000000000000000000000003107202531072025000000000000000000000000000                              000                           
0330098300005T 09390710130030031        000006946247136946247        30072019000000000071665033202736946247                  001000000896847373LUIS GUSTAVO MORAIS COSTA               02900006860000000000000000000000000                      
0330098300006U 090000000000000000000000000000000000000000000000000000000000000000000000000000000000000000000000000000000000000000000000003107202531072025000000000000000000000000000                              000                           
0330098300007T 09390710130030031        000006946248836946248        30072019000000000179925033202736946248                  001000000896847373LUIS GUSTAVO MORAIS COSTA               02900006860000000000000000000000000                      
0330098300008U 090000000000000000000000000000000000000000000000000000000000000000000000000000000000000000000000000000000000000000000000003107202531072025000000000000000000000000000                              000                           
03300985         0000080000000000000000000000000000000000000000000000000154000000000262141140000000000000000000000000000804                                                                                                                     
03300989         000001000012                                                                                                                                                                                                                   
